{
  "_format": "hh-sol-artifact-1",
  "contractName": "MusicNFTMarketplace",
  "sourceName": "src/model/MusicNFTMarketplace.sol",
  "abi": [
    {
      "inputs": [
        {
          "internalType": "uint256",
          "name": "_royaltyFee",
          "type": "uint256"
        },
        {
          "internalType": "address",
          "name": "_artist",
          "type": "address"
        },
        {
          "internalType": "uint256[]",
          "name": "_prices",
          "type": "uint256[]"
        }
      ],
      "stateMutability": "payable",
      "type": "constructor"
    },
    {
      "anonymous": false,
      "inputs": [
        {
          "indexed": true,
          "internalType": "address",
          "name": "owner",
          "type": "address"
        },
        {
          "indexed": true,
          "internalType": "address",
          "name": "approved",
          "type": "address"
        },
        {
          "indexed": true,
          "internalType": "uint256",
          "name": "tokenId",
          "type": "uint256"
        }
      ],
      "name": "Approval",
      "type": "event"
    },
    {
      "anonymous": false,
      "inputs": [
        {
          "indexed": true,
          "internalType": "address",
          "name": "owner",
          "type": "address"
        },
        {
          "indexed": true,
          "internalType": "address",
          "name": "operator",
          "type": "address"
        },
        {
          "indexed": false,
          "internalType": "bool",
          "name": "approved",
          "type": "bool"
        }
      ],
      "name": "ApprovalForAll",
      "type": "event"
    },
    {
      "anonymous": false,
      "inputs": [
        {
          "indexed": true,
          "internalType": "uint256",
          "name": "tokenId",
          "type": "uint256"
        },
        {
          "indexed": true,
          "internalType": "address",
          "name": "seller",
          "type": "address"
        },
        {
          "indexed": false,
          "internalType": "address",
          "name": "buyer",
          "type": "address"
        },
        {
          "indexed": false,
          "internalType": "uint256",
          "name": "price",
          "type": "uint256"
        }
      ],
      "name": "MarketItemBought",
      "type": "event"
    },
    {
      "anonymous": false,
      "inputs": [
        {
          "indexed": true,
          "internalType": "uint256",
          "name": "tokenId",
          "type": "uint256"
        },
        {
          "indexed": true,
          "internalType": "address",
          "name": "seller",
          "type": "address"
        },
        {
          "indexed": false,
          "internalType": "uint256",
          "name": "price",
          "type": "uint256"
        }
      ],
      "name": "MarketItemRelisted",
      "type": "event"
    },
    {
      "anonymous": false,
      "inputs": [
        {
          "indexed": true,
          "internalType": "address",
          "name": "previousOwner",
          "type": "address"
        },
        {
          "indexed": true,
          "internalType": "address",
          "name": "newOwner",
          "type": "address"
        }
      ],
      "name": "OwnershipTransferred",
      "type": "event"
    },
    {
      "anonymous": false,
      "inputs": [
        {
          "indexed": true,
          "internalType": "address",
          "name": "from",
          "type": "address"
        },
        {
          "indexed": true,
          "internalType": "address",
          "name": "to",
          "type": "address"
        },
        {
          "indexed": true,
          "internalType": "uint256",
          "name": "tokenId",
          "type": "uint256"
        }
      ],
      "name": "Transfer",
      "type": "event"
    },
    {
      "inputs": [
        {
          "internalType": "address",
          "name": "to",
          "type": "address"
        },
        {
          "internalType": "uint256",
          "name": "tokenId",
          "type": "uint256"
        }
      ],
      "name": "approve",
      "outputs": [],
      "stateMutability": "nonpayable",
      "type": "function"
    },
    {
      "inputs": [],
      "name": "artist",
      "outputs": [
        {
          "internalType": "address",
          "name": "",
          "type": "address"
        }
      ],
      "stateMutability": "view",
      "type": "function"
    },
    {
      "inputs": [
        {
          "internalType": "address",
          "name": "owner",
          "type": "address"
        }
      ],
      "name": "balanceOf",
      "outputs": [
        {
          "internalType": "uint256",
          "name": "",
          "type": "uint256"
        }
      ],
      "stateMutability": "view",
      "type": "function"
    },
    {
      "inputs": [],
      "name": "baseURI",
      "outputs": [
        {
          "internalType": "string",
          "name": "",
          "type": "string"
        }
      ],
      "stateMutability": "view",
      "type": "function"
    },
    {
      "inputs": [
        {
          "internalType": "uint256",
          "name": "_tokenId",
          "type": "uint256"
        }
      ],
      "name": "buyToken",
      "outputs": [],
      "stateMutability": "payable",
      "type": "function"
    },
    {
      "inputs": [],
      "name": "getAllUnsoldTokens",
      "outputs": [
        {
          "components": [
            {
              "internalType": "uint256",
              "name": "tokenId",
              "type": "uint256"
            },
            {
              "internalType": "address payable",
              "name": "seller",
              "type": "address"
            },
            {
              "internalType": "uint256",
              "name": "price",
              "type": "uint256"
            }
          ],
          "internalType": "struct MusicNFTMarketplace.MarketItem[]",
          "name": "",
          "type": "tuple[]"
        }
      ],
      "stateMutability": "view",
      "type": "function"
    },
    {
      "inputs": [
        {
          "internalType": "uint256",
          "name": "tokenId",
          "type": "uint256"
        }
      ],
      "name": "getApproved",
      "outputs": [
        {
          "internalType": "address",
          "name": "",
          "type": "address"
        }
      ],
      "stateMutability": "view",
      "type": "function"
    },
    {
      "inputs": [],
      "name": "getMyTokens",
      "outputs": [
        {
          "components": [
            {
              "internalType": "uint256",
              "name": "tokenId",
              "type": "uint256"
            },
            {
              "internalType": "address payable",
              "name": "seller",
              "type": "address"
            },
            {
              "internalType": "uint256",
              "name": "price",
              "type": "uint256"
            }
          ],
          "internalType": "struct MusicNFTMarketplace.MarketItem[]",
          "name": "",
          "type": "tuple[]"
        }
      ],
      "stateMutability": "view",
      "type": "function"
    },
    {
      "inputs": [
        {
          "internalType": "address",
          "name": "owner",
          "type": "address"
        },
        {
          "internalType": "address",
          "name": "operator",
          "type": "address"
        }
      ],
      "name": "isApprovedForAll",
      "outputs": [
        {
          "internalType": "bool",
          "name": "",
          "type": "bool"
        }
      ],
      "stateMutability": "view",
      "type": "function"
    },
    {
      "inputs": [
        {
          "internalType": "uint256",
          "name": "",
          "type": "uint256"
        }
      ],
      "name": "marketItems",
      "outputs": [
        {
          "internalType": "uint256",
          "name": "tokenId",
          "type": "uint256"
        },
        {
          "internalType": "address payable",
          "name": "seller",
          "type": "address"
        },
        {
          "internalType": "uint256",
          "name": "price",
          "type": "uint256"
        }
      ],
      "stateMutability": "view",
      "type": "function"
    },
    {
      "inputs": [],
      "name": "name",
      "outputs": [
        {
          "internalType": "string",
          "name": "",
          "type": "string"
        }
      ],
      "stateMutability": "view",
      "type": "function"
    },
    {
      "inputs": [],
      "name": "owner",
      "outputs": [
        {
          "internalType": "address",
          "name": "",
          "type": "address"
        }
      ],
      "stateMutability": "view",
      "type": "function"
    },
    {
      "inputs": [
        {
          "internalType": "uint256",
          "name": "tokenId",
          "type": "uint256"
        }
      ],
      "name": "ownerOf",
      "outputs": [
        {
          "internalType": "address",
          "name": "",
          "type": "address"
        }
      ],
      "stateMutability": "view",
      "type": "function"
    },
    {
      "inputs": [],
      "name": "renounceOwnership",
      "outputs": [],
      "stateMutability": "nonpayable",
      "type": "function"
    },
    {
      "inputs": [
        {
          "internalType": "uint256",
          "name": "_tokenId",
          "type": "uint256"
        },
        {
          "internalType": "uint256",
          "name": "_price",
          "type": "uint256"
        }
      ],
      "name": "resellToken",
      "outputs": [],
      "stateMutability": "payable",
      "type": "function"
    },
    {
      "inputs": [],
      "name": "royaltyFee",
      "outputs": [
        {
          "internalType": "uint256",
          "name": "",
          "type": "uint256"
        }
      ],
      "stateMutability": "view",
      "type": "function"
    },
    {
      "inputs": [
        {
          "internalType": "address",
          "name": "from",
          "type": "address"
        },
        {
          "internalType": "address",
          "name": "to",
          "type": "address"
        },
        {
          "internalType": "uint256",
          "name": "tokenId",
          "type": "uint256"
        }
      ],
      "name": "safeTransferFrom",
      "outputs": [],
      "stateMutability": "nonpayable",
      "type": "function"
    },
    {
      "inputs": [
        {
          "internalType": "address",
          "name": "from",
          "type": "address"
        },
        {
          "internalType": "address",
          "name": "to",
          "type": "address"
        },
        {
          "internalType": "uint256",
          "name": "tokenId",
          "type": "uint256"
        },
        {
          "internalType": "bytes",
          "name": "_data",
          "type": "bytes"
        }
      ],
      "name": "safeTransferFrom",
      "outputs": [],
      "stateMutability": "nonpayable",
      "type": "function"
    },
    {
      "inputs": [
        {
          "internalType": "address",
          "name": "operator",
          "type": "address"
        },
        {
          "internalType": "bool",
          "name": "approved",
          "type": "bool"
        }
      ],
      "name": "setApprovalForAll",
      "outputs": [],
      "stateMutability": "nonpayable",
      "type": "function"
    },
    {
      "inputs": [
        {
          "internalType": "bytes4",
          "name": "interfaceId",
          "type": "bytes4"
        }
      ],
      "name": "supportsInterface",
      "outputs": [
        {
          "internalType": "bool",
          "name": "",
          "type": "bool"
        }
      ],
      "stateMutability": "view",
      "type": "function"
    },
    {
      "inputs": [],
      "name": "symbol",
      "outputs": [
        {
          "internalType": "string",
          "name": "",
          "type": "string"
        }
      ],
      "stateMutability": "view",
      "type": "function"
    },
    {
      "inputs": [
        {
          "internalType": "uint256",
          "name": "tokenId",
          "type": "uint256"
        }
      ],
      "name": "tokenURI",
      "outputs": [
        {
          "internalType": "string",
          "name": "",
          "type": "string"
        }
      ],
      "stateMutability": "view",
      "type": "function"
    },
    {
      "inputs": [
        {
          "internalType": "address",
          "name": "from",
          "type": "address"
        },
        {
          "internalType": "address",
          "name": "to",
          "type": "address"
        },
        {
          "internalType": "uint256",
          "name": "tokenId",
          "type": "uint256"
        }
      ],
      "name": "transferFrom",
      "outputs": [],
      "stateMutability": "nonpayable",
      "type": "function"
    },
    {
      "inputs": [
        {
          "internalType": "address",
          "name": "newOwner",
          "type": "address"
        }
      ],
      "name": "transferOwnership",
      "outputs": [],
      "stateMutability": "nonpayable",
      "type": "function"
    },
    {
      "inputs": [
        {
          "internalType": "uint256",
          "name": "_royaltyFee",
          "type": "uint256"
        }
      ],
      "name": "updateRoyaltyFee",
      "outputs": [],
      "stateMutability": "nonpayable",
      "type": "function"
    }
  ],
  "bytecode": "0x6080604052604051806080016040528060598152602001620046f1605991396007908051906020019062000035929190620006ca565b506040516200474a3803806200474a83398181016040528101906200005b91906200084a565b6040518060400160405280600981526020017f4d757369634e46547300000000000000000000000000000000000000000000008152506040518060400160405280600381526020017f4d4e5300000000000000000000000000000000000000000000000000000000008152508160009080519060200190620000df929190620006ca565b508060019080519060200190620000f8929190620006ca565b5050506200011b6200010f6200038c60201b60201c565b6200039460201b60201c565b8281516200012a919062000aa3565b3410156200016f576040517f08c379a00000000000000000000000000000000000000000000000000000000081526004016200016690620009bb565b60405180910390fd5b8260098190555081600860006101000a81548173ffffffffffffffffffffffffffffffffffffffff021916908373ffffffffffffffffffffffffffffffffffffffff16021790555060005b81518160ff16101562000382576000828260ff168151811062000206577f4e487b7100000000000000000000000000000000000000000000000000000000600052603260045260246000fd5b60200260200101511162000251576040517f08c379a0000000000000000000000000000000000000000000000000000000008152600401620002489062000955565b60405180910390fd5b62000266308260ff166200045a60201b60201c565b600060405180606001604052808360ff1681526020013373ffffffffffffffffffffffffffffffffffffffff168152602001848460ff1681518110620002d5577f4e487b7100000000000000000000000000000000000000000000000000000000600052603260045260246000fd5b60200260200101518152509050600a8190806001815401808255809150506001900390600052602060002090600302016000909190919091506000820151816000015560208201518160010160006101000a81548173ffffffffffffffffffffffffffffffffffffffff021916908373ffffffffffffffffffffffffffffffffffffffff160217905550604082015181600201555050508080620003799062000bbb565b915050620001ba565b5050505062000dac565b600033905090565b6000600660009054906101000a900473ffffffffffffffffffffffffffffffffffffffff16905081600660006101000a81548173ffffffffffffffffffffffffffffffffffffffff021916908373ffffffffffffffffffffffffffffffffffffffff1602179055508173ffffffffffffffffffffffffffffffffffffffff168173ffffffffffffffffffffffffffffffffffffffff167f8be0079c531659141344cd1fd0a4f28419497f9722a3daafe3b4186f6b6457e060405160405180910390a35050565b600073ffffffffffffffffffffffffffffffffffffffff168273ffffffffffffffffffffffffffffffffffffffff161415620004cd576040517f08c379a0000000000000000000000000000000000000000000000000000000008152600401620004c49062000999565b60405180910390fd5b620004de816200065460201b60201c565b1562000521576040517f08c379a0000000000000000000000000000000000000000000000000000000008152600401620005189062000977565b60405180910390fd5b6200053560008383620006c060201b60201c565b6001600360008473ffffffffffffffffffffffffffffffffffffffff1673ffffffffffffffffffffffffffffffffffffffff168152602001908152602001600020600082825462000587919062000a46565b92505081905550816002600083815260200190815260200160002060006101000a81548173ffffffffffffffffffffffffffffffffffffffff021916908373ffffffffffffffffffffffffffffffffffffffff160217905550808273ffffffffffffffffffffffffffffffffffffffff16600073ffffffffffffffffffffffffffffffffffffffff167fddf252ad1be2c89b69c2b068fc378daa952ba7f163c4a11628f55a4df523b3ef60405160405180910390a46200065060008383620006c560201b60201c565b5050565b60008073ffffffffffffffffffffffffffffffffffffffff166002600084815260200190815260200160002060009054906101000a900473ffffffffffffffffffffffffffffffffffffffff1673ffffffffffffffffffffffffffffffffffffffff1614159050919050565b505050565b505050565b828054620006d89062000b4f565b90600052602060002090601f016020900481019282620006fc576000855562000748565b82601f106200071757805160ff191683800117855562000748565b8280016001018555821562000748579182015b82811115620007475782518255916020019190600101906200072a565b5b5090506200075791906200075b565b5090565b5b80821115620007765760008160009055506001016200075c565b5090565b6000620007916200078b8462000a06565b620009dd565b90508083825260208201905082856020860282011115620007b157600080fd5b60005b85811015620007e55781620007ca888262000833565b845260208401935060208301925050600181019050620007b4565b5050509392505050565b600081519050620008008162000d78565b92915050565b600082601f8301126200081857600080fd5b81516200082a8482602086016200077a565b91505092915050565b600081519050620008448162000d92565b92915050565b6000806000606084860312156200086057600080fd5b6000620008708682870162000833565b93505060206200088386828701620007ef565b925050604084015167ffffffffffffffff811115620008a157600080fd5b620008af8682870162000806565b9150509250925092565b6000620008c860208362000a35565b9150620008d58262000c88565b602082019050919050565b6000620008ef601c8362000a35565b9150620008fc8262000cb1565b602082019050919050565b60006200091660208362000a35565b9150620009238262000cda565b602082019050919050565b60006200093d60508362000a35565b91506200094a8262000d03565b606082019050919050565b600060208201905081810360008301526200097081620008b9565b9050919050565b600060208201905081810360008301526200099281620008e0565b9050919050565b60006020820190508181036000830152620009b48162000907565b9050919050565b60006020820190508181036000830152620009d6816200092e565b9050919050565b6000620009e9620009fc565b9050620009f7828262000b85565b919050565b6000604051905090565b600067ffffffffffffffff82111562000a245762000a2362000c48565b5b602082029050602081019050919050565b600082825260208201905092915050565b600062000a538262000b38565b915062000a608362000b38565b9250827fffffffffffffffffffffffffffffffffffffffffffffffffffffffffffffffff0382111562000a985762000a9762000bea565b5b828201905092915050565b600062000ab08262000b38565b915062000abd8362000b38565b9250817fffffffffffffffffffffffffffffffffffffffffffffffffffffffffffffffff048311821515161562000af95762000af862000bea565b5b828202905092915050565b600062000b118262000b18565b9050919050565b600073ffffffffffffffffffffffffffffffffffffffff82169050919050565b6000819050919050565b600060ff82169050919050565b6000600282049050600182168062000b6857607f821691505b6020821081141562000b7f5762000b7e62000c19565b5b50919050565b62000b908262000c77565b810181811067ffffffffffffffff8211171562000bb25762000bb162000c48565b5b80604052505050565b600062000bc88262000b42565b915060ff82141562000bdf5762000bde62000bea565b5b600182019050919050565b7f4e487b7100000000000000000000000000000000000000000000000000000000600052601160045260246000fd5b7f4e487b7100000000000000000000000000000000000000000000000000000000600052602260045260246000fd5b7f4e487b7100000000000000000000000000000000000000000000000000000000600052604160045260246000fd5b6000601f19601f8301169050919050565b7f507269636573206d7573742062652067726561746572207468616e205a65726f600082015250565b7f4552433732313a20746f6b656e20616c7265616479206d696e74656400000000600082015250565b7f4552433732313a206d696e7420746f20746865207a65726f2061646472657373600082015250565b7f506c65617365207061792074686520726571756972656420526f79616c74792060008201527f46656520666f7220616c6c2074686520546f6b656e73206c6973746564206f6e60208201527f20746865204d61726b6574706c61636500000000000000000000000000000000604082015250565b62000d838162000b04565b811462000d8f57600080fd5b50565b62000d9d8162000b38565b811462000da957600080fd5b50565b6139358062000dbc6000396000f3fe6080604052600436106101665760003560e01c80636c0360eb116100d1578063a22cb4651161008a578063c87b56dd11610064578063c87b56dd1461051f578063e219fc751461055c578063e985e9c514610578578063f2fde38b146105b557610166565b8063a22cb465146104a2578063b88d4fde146104cb578063b8997a97146104f457610166565b80636c0360eb146103a257806370a08231146103cd578063715018a61461040a578063767dd076146104215780638da5cb5b1461044c57806395d89b411461047757610166565b806342842e0e1161012357806342842e0e1461027e57806343bc1612146102a75780634e83be47146102d257806351f28e14146102fb5780635b3b136a1461033a5780636352211e1461036557610166565b806301ffc9a71461016b57806306fdde03146101a8578063081812fc146101d3578063095ea7b31461021057806323b872dd146102395780632d296bf114610262575b600080fd5b34801561017757600080fd5b50610192600480360381019061018d9190612747565b6105de565b60405161019f9190612cdc565b60405180910390f35b3480156101b457600080fd5b506101bd6106c0565b6040516101ca9190612cf7565b60405180910390f35b3480156101df57600080fd5b506101fa60048036038101906101f59190612799565b610752565b6040516102079190612c2a565b60405180910390f35b34801561021c57600080fd5b506102376004803603810190610232919061270b565b6107d7565b005b34801561024557600080fd5b50610260600480360381019061025b9190612605565b6108ef565b005b61027c60048036038101906102779190612799565b61094f565b005b34801561028a57600080fd5b506102a560048036038101906102a09190612605565b610bef565b005b3480156102b357600080fd5b506102bc610c0f565b6040516102c99190612c2a565b60405180910390f35b3480156102de57600080fd5b506102f960048036038101906102f49190612799565b610c35565b005b34801561030757600080fd5b50610322600480360381019061031d9190612799565b610cbb565b60405161033193929190612f54565b60405180910390f35b34801561034657600080fd5b5061034f610d15565b60405161035c9190612cba565b60405180910390f35b34801561037157600080fd5b5061038c60048036038101906103879190612799565b610f18565b6040516103999190612c2a565b60405180910390f35b3480156103ae57600080fd5b506103b7610fca565b6040516103c49190612cf7565b60405180910390f35b3480156103d957600080fd5b506103f460048036038101906103ef91906125a0565b611058565b6040516104019190612f39565b60405180910390f35b34801561041657600080fd5b5061041f611110565b005b34801561042d57600080fd5b50610436611198565b6040516104439190612cba565b60405180910390f35b34801561045857600080fd5b506104616113fe565b60405161046e9190612c2a565b60405180910390f35b34801561048357600080fd5b5061048c611428565b6040516104999190612cf7565b60405180910390f35b3480156104ae57600080fd5b506104c960048036038101906104c491906126cf565b6114ba565b005b3480156104d757600080fd5b506104f260048036038101906104ed9190612654565b6114d0565b005b34801561050057600080fd5b50610509611532565b6040516105169190612f39565b60405180910390f35b34801561052b57600080fd5b5061054660048036038101906105419190612799565b611538565b6040516105539190612cf7565b60405180910390f35b610576600480360381019061057191906127c2565b6115df565b005b34801561058457600080fd5b5061059f600480360381019061059a91906125c9565b61179e565b6040516105ac9190612cdc565b60405180910390f35b3480156105c157600080fd5b506105dc60048036038101906105d791906125a0565b611832565b005b60007f80ac58cd000000000000000000000000000000000000000000000000000000007bffffffffffffffffffffffffffffffffffffffffffffffffffffffff1916827bffffffffffffffffffffffffffffffffffffffffffffffffffffffff191614806106a957507f5b5e139f000000000000000000000000000000000000000000000000000000007bffffffffffffffffffffffffffffffffffffffffffffffffffffffff1916827bffffffffffffffffffffffffffffffffffffffffffffffffffffffff1916145b806106b957506106b88261192a565b5b9050919050565b6060600080546106cf906131e0565b80601f01602080910402602001604051908101604052809291908181526020018280546106fb906131e0565b80156107485780601f1061071d57610100808354040283529160200191610748565b820191906000526020600020905b81548152906001019060200180831161072b57829003601f168201915b5050505050905090565b600061075d82611994565b61079c576040517f08c379a000000000000000000000000000000000000000000000000000000000815260040161079390612e99565b60405180910390fd5b6004600083815260200190815260200160002060009054906101000a900473ffffffffffffffffffffffffffffffffffffffff169050919050565b60006107e282610f18565b90508073ffffffffffffffffffffffffffffffffffffffff168373ffffffffffffffffffffffffffffffffffffffff161415610853576040517f08c379a000000000000000000000000000000000000000000000000000000000815260040161084a90612ef9565b60405180910390fd5b8073ffffffffffffffffffffffffffffffffffffffff16610872611a00565b73ffffffffffffffffffffffffffffffffffffffff1614806108a157506108a08161089b611a00565b61179e565b5b6108e0576040517f08c379a00000000000000000000000000000000000000000000000000000000081526004016108d790612e19565b60405180910390fd5b6108ea8383611a08565b505050565b6109006108fa611a00565b82611ac1565b61093f576040517f08c379a000000000000000000000000000000000000000000000000000000000815260040161093690612f19565b60405180910390fd5b61094a838383611b9f565b505050565b6000600a828154811061098b577f4e487b7100000000000000000000000000000000000000000000000000000000600052603260045260246000fd5b90600052602060002090600302016002015490506000600a83815481106109db577f4e487b7100000000000000000000000000000000000000000000000000000000600052603260045260246000fd5b906000526020600020906003020160010160009054906101000a900473ffffffffffffffffffffffffffffffffffffffff169050813414610a51576040517f08c379a0000000000000000000000000000000000000000000000000000000008152600401610a4890612e79565b60405180910390fd5b600860009054906101000a900473ffffffffffffffffffffffffffffffffffffffff1673ffffffffffffffffffffffffffffffffffffffff166108fc6009549081150290604051600060405180830381858888f19350505050158015610abb573d6000803e3d6000fd5b508073ffffffffffffffffffffffffffffffffffffffff166108fc349081150290604051600060405180830381858888f19350505050158015610b02573d6000803e3d6000fd5b50610b0e303385611b9f565b6000600a8481548110610b4a577f4e487b7100000000000000000000000000000000000000000000000000000000600052603260045260246000fd5b906000526020600020906003020160010160006101000a81548173ffffffffffffffffffffffffffffffffffffffff021916908373ffffffffffffffffffffffffffffffffffffffff1602179055508073ffffffffffffffffffffffffffffffffffffffff16837fd356b8423ef89ccba8e4f1dbeccc60b41825fd97d432f2e6a6dbd11ae6ecec113385604051610be2929190612c91565b60405180910390a3505050565b610c0a838383604051806020016040528060008152506114d0565b505050565b600860009054906101000a900473ffffffffffffffffffffffffffffffffffffffff1681565b610c3d611a00565b73ffffffffffffffffffffffffffffffffffffffff16610c5b6113fe565b73ffffffffffffffffffffffffffffffffffffffff1614610cb1576040517f08c379a0000000000000000000000000000000000000000000000000000000008152600401610ca890612eb9565b60405180910390fd5b8060098190555050565b600a8181548110610ccb57600080fd5b90600052602060002090600302016000915090508060000154908060010160009054906101000a900473ffffffffffffffffffffffffffffffffffffffff16908060020154905083565b60606000610d2233611058565b905060008167ffffffffffffffff811115610d66577f4e487b7100000000000000000000000000000000000000000000000000000000600052604160045260246000fd5b604051908082528060200260200182016040528015610d9f57816020015b610d8c612498565b815260200190600190039081610d845790505b5090506000805b600a80549050811015610f0e573373ffffffffffffffffffffffffffffffffffffffff16610dd382610f18565b73ffffffffffffffffffffffffffffffffffffffff161415610efd57600a8181548110610e29577f4e487b7100000000000000000000000000000000000000000000000000000000600052603260045260246000fd5b9060005260206000209060030201604051806060016040529081600082015481526020016001820160009054906101000a900473ffffffffffffffffffffffffffffffffffffffff1673ffffffffffffffffffffffffffffffffffffffff1673ffffffffffffffffffffffffffffffffffffffff168152602001600282015481525050838381518110610ee5577f4e487b7100000000000000000000000000000000000000000000000000000000600052603260045260246000fd5b602002602001018190525081610efa90613243565b91505b80610f0790613243565b9050610da6565b5081935050505090565b6000806002600084815260200190815260200160002060009054906101000a900473ffffffffffffffffffffffffffffffffffffffff169050600073ffffffffffffffffffffffffffffffffffffffff168173ffffffffffffffffffffffffffffffffffffffff161415610fc1576040517f08c379a0000000000000000000000000000000000000000000000000000000008152600401610fb890612e59565b60405180910390fd5b80915050919050565b60078054610fd7906131e0565b80601f0160208091040260200160405190810160405280929190818152602001828054611003906131e0565b80156110505780601f1061102557610100808354040283529160200191611050565b820191906000526020600020905b81548152906001019060200180831161103357829003601f168201915b505050505081565b60008073ffffffffffffffffffffffffffffffffffffffff168273ffffffffffffffffffffffffffffffffffffffff1614156110c9576040517f08c379a00000000000000000000000000000000000000000000000000000000081526004016110c090612e39565b60405180910390fd5b600360008373ffffffffffffffffffffffffffffffffffffffff1673ffffffffffffffffffffffffffffffffffffffff168152602001908152602001600020549050919050565b611118611a00565b73ffffffffffffffffffffffffffffffffffffffff166111366113fe565b73ffffffffffffffffffffffffffffffffffffffff161461118c576040517f08c379a000000000000000000000000000000000000000000000000000000000815260040161118390612eb9565b60405180910390fd5b6111966000611e06565b565b606060006111a530611058565b905060008167ffffffffffffffff8111156111e9577f4e487b7100000000000000000000000000000000000000000000000000000000600052604160045260246000fd5b60405190808252806020026020018201604052801561122257816020015b61120f612498565b8152602001906001900390816112075790505b5090506000805b600a805490508110156113f457600073ffffffffffffffffffffffffffffffffffffffff16600a8281548110611288577f4e487b7100000000000000000000000000000000000000000000000000000000600052603260045260246000fd5b906000526020600020906003020160010160009054906101000a900473ffffffffffffffffffffffffffffffffffffffff1673ffffffffffffffffffffffffffffffffffffffff16146113e357600a818154811061130f577f4e487b7100000000000000000000000000000000000000000000000000000000600052603260045260246000fd5b9060005260206000209060030201604051806060016040529081600082015481526020016001820160009054906101000a900473ffffffffffffffffffffffffffffffffffffffff1673ffffffffffffffffffffffffffffffffffffffff1673ffffffffffffffffffffffffffffffffffffffff1681526020016002820154815250508383815181106113cb577f4e487b7100000000000000000000000000000000000000000000000000000000600052603260045260246000fd5b6020026020010181905250816113e090613243565b91505b806113ed90613243565b9050611229565b5081935050505090565b6000600660009054906101000a900473ffffffffffffffffffffffffffffffffffffffff16905090565b606060018054611437906131e0565b80601f0160208091040260200160405190810160405280929190818152602001828054611463906131e0565b80156114b05780601f10611485576101008083540402835291602001916114b0565b820191906000526020600020905b81548152906001019060200180831161149357829003601f168201915b5050505050905090565b6114cc6114c5611a00565b8383611ecc565b5050565b6114e16114db611a00565b83611ac1565b611520576040517f08c379a000000000000000000000000000000000000000000000000000000000815260040161151790612f19565b60405180910390fd5b61152c84848484612039565b50505050565b60095481565b606061154382611994565b611582576040517f08c379a000000000000000000000000000000000000000000000000000000000815260040161157990612ed9565b60405180910390fd5b600061158c612095565b905060008151116115ac57604051806020016040528060008152506115d7565b806115b684612127565b6040516020016115c7929190612c06565b6040516020818303038152906040525b915050919050565b6009543414611623576040517f08c379a000000000000000000000000000000000000000000000000000000000815260040161161a90612d19565b60405180910390fd5b60008111611666576040517f08c379a000000000000000000000000000000000000000000000000000000000815260040161165d90612df9565b60405180910390fd5b611671333084611b9f565b80600a83815481106116ac577f4e487b7100000000000000000000000000000000000000000000000000000000600052603260045260246000fd5b90600052602060002090600302016002018190555033600a83815481106116fc577f4e487b7100000000000000000000000000000000000000000000000000000000600052603260045260246000fd5b906000526020600020906003020160010160006101000a81548173ffffffffffffffffffffffffffffffffffffffff021916908373ffffffffffffffffffffffffffffffffffffffff1602179055503373ffffffffffffffffffffffffffffffffffffffff16827fb2ba12d2566848b13548a3741edb565b69d3cbce7796959cd67431610207eb13836040516117929190612f39565b60405180910390a35050565b6000600560008473ffffffffffffffffffffffffffffffffffffffff1673ffffffffffffffffffffffffffffffffffffffff16815260200190815260200160002060008373ffffffffffffffffffffffffffffffffffffffff1673ffffffffffffffffffffffffffffffffffffffff16815260200190815260200160002060009054906101000a900460ff16905092915050565b61183a611a00565b73ffffffffffffffffffffffffffffffffffffffff166118586113fe565b73ffffffffffffffffffffffffffffffffffffffff16146118ae576040517f08c379a00000000000000000000000000000000000000000000000000000000081526004016118a590612eb9565b60405180910390fd5b600073ffffffffffffffffffffffffffffffffffffffff168173ffffffffffffffffffffffffffffffffffffffff16141561191e576040517f08c379a000000000000000000000000000000000000000000000000000000000815260040161191590612d59565b60405180910390fd5b61192781611e06565b50565b60007f01ffc9a7000000000000000000000000000000000000000000000000000000007bffffffffffffffffffffffffffffffffffffffffffffffffffffffff1916827bffffffffffffffffffffffffffffffffffffffffffffffffffffffff1916149050919050565b60008073ffffffffffffffffffffffffffffffffffffffff166002600084815260200190815260200160002060009054906101000a900473ffffffffffffffffffffffffffffffffffffffff1673ffffffffffffffffffffffffffffffffffffffff1614159050919050565b600033905090565b816004600083815260200190815260200160002060006101000a81548173ffffffffffffffffffffffffffffffffffffffff021916908373ffffffffffffffffffffffffffffffffffffffff160217905550808273ffffffffffffffffffffffffffffffffffffffff16611a7b83610f18565b73ffffffffffffffffffffffffffffffffffffffff167f8c5be1e5ebec7d5bd14f71427d1e84f3dd0314c0f7b2291e5b200ac8c7c3b92560405160405180910390a45050565b6000611acc82611994565b611b0b576040517f08c379a0000000000000000000000000000000000000000000000000000000008152600401611b0290612dd9565b60405180910390fd5b6000611b1683610f18565b90508073ffffffffffffffffffffffffffffffffffffffff168473ffffffffffffffffffffffffffffffffffffffff161480611b8557508373ffffffffffffffffffffffffffffffffffffffff16611b6d84610752565b73ffffffffffffffffffffffffffffffffffffffff16145b80611b965750611b95818561179e565b5b91505092915050565b8273ffffffffffffffffffffffffffffffffffffffff16611bbf82610f18565b73ffffffffffffffffffffffffffffffffffffffff1614611c15576040517f08c379a0000000000000000000000000000000000000000000000000000000008152600401611c0c90612d79565b60405180910390fd5b600073ffffffffffffffffffffffffffffffffffffffff168273ffffffffffffffffffffffffffffffffffffffff161415611c85576040517f08c379a0000000000000000000000000000000000000000000000000000000008152600401611c7c90612d99565b60405180910390fd5b611c908383836122d4565b611c9b600082611a08565b6001600360008573ffffffffffffffffffffffffffffffffffffffff1673ffffffffffffffffffffffffffffffffffffffff1681526020019081526020016000206000828254611ceb91906130e4565b925050819055506001600360008473ffffffffffffffffffffffffffffffffffffffff1673ffffffffffffffffffffffffffffffffffffffff1681526020019081526020016000206000828254611d42919061305d565b92505081905550816002600083815260200190815260200160002060006101000a81548173ffffffffffffffffffffffffffffffffffffffff021916908373ffffffffffffffffffffffffffffffffffffffff160217905550808273ffffffffffffffffffffffffffffffffffffffff168473ffffffffffffffffffffffffffffffffffffffff167fddf252ad1be2c89b69c2b068fc378daa952ba7f163c4a11628f55a4df523b3ef60405160405180910390a4611e018383836122d9565b505050565b6000600660009054906101000a900473ffffffffffffffffffffffffffffffffffffffff16905081600660006101000a81548173ffffffffffffffffffffffffffffffffffffffff021916908373ffffffffffffffffffffffffffffffffffffffff1602179055508173ffffffffffffffffffffffffffffffffffffffff168173ffffffffffffffffffffffffffffffffffffffff167f8be0079c531659141344cd1fd0a4f28419497f9722a3daafe3b4186f6b6457e060405160405180910390a35050565b8173ffffffffffffffffffffffffffffffffffffffff168373ffffffffffffffffffffffffffffffffffffffff161415611f3b576040517f08c379a0000000000000000000000000000000000000000000000000000000008152600401611f3290612db9565b60405180910390fd5b80600560008573ffffffffffffffffffffffffffffffffffffffff1673ffffffffffffffffffffffffffffffffffffffff16815260200190815260200160002060008473ffffffffffffffffffffffffffffffffffffffff1673ffffffffffffffffffffffffffffffffffffffff16815260200190815260200160002060006101000a81548160ff0219169083151502179055508173ffffffffffffffffffffffffffffffffffffffff168373ffffffffffffffffffffffffffffffffffffffff167f17307eab39ab6107e8899845ad3d59bd9653f200f220920489ca2b5937696c318360405161202c9190612cdc565b60405180910390a3505050565b612044848484611b9f565b612050848484846122de565b61208f576040517f08c379a000000000000000000000000000000000000000000000000000000000815260040161208690612d39565b60405180910390fd5b50505050565b6060600780546120a4906131e0565b80601f01602080910402602001604051908101604052809291908181526020018280546120d0906131e0565b801561211d5780601f106120f25761010080835404028352916020019161211d565b820191906000526020600020905b81548152906001019060200180831161210057829003601f168201915b5050505050905090565b6060600082141561216f576040518060400160405280600181526020017f300000000000000000000000000000000000000000000000000000000000000081525090506122cf565b600082905060005b600082146121a157808061218a90613243565b915050600a8261219a91906130b3565b9150612177565b60008167ffffffffffffffff8111156121e3577f4e487b7100000000000000000000000000000000000000000000000000000000600052604160045260246000fd5b6040519080825280601f01601f1916602001820160405280156122155781602001600182028036833780820191505090505b5090505b600085146122c85760018261222e91906130e4565b9150600a8561223d919061328c565b6030612249919061305d565b60f81b818381518110612285577f4e487b7100000000000000000000000000000000000000000000000000000000600052603260045260246000fd5b60200101907effffffffffffffffffffffffffffffffffffffffffffffffffffffffffffff1916908160001a905350600a856122c191906130b3565b9450612219565b8093505050505b919050565b505050565b505050565b60006122ff8473ffffffffffffffffffffffffffffffffffffffff16612475565b15612468578373ffffffffffffffffffffffffffffffffffffffff1663150b7a02612328611a00565b8786866040518563ffffffff1660e01b815260040161234a9493929190612c45565b602060405180830381600087803b15801561236457600080fd5b505af192505050801561239557506040513d601f19601f820116820180604052508101906123929190612770565b60015b612418573d80600081146123c5576040519150601f19603f3d011682016040523d82523d6000602084013e6123ca565b606091505b50600081511415612410576040517f08c379a000000000000000000000000000000000000000000000000000000000815260040161240790612d39565b60405180910390fd5b805181602001fd5b63150b7a0260e01b7bffffffffffffffffffffffffffffffffffffffffffffffffffffffff1916817bffffffffffffffffffffffffffffffffffffffffffffffffffffffff19161491505061246d565b600190505b949350505050565b6000808273ffffffffffffffffffffffffffffffffffffffff163b119050919050565b604051806060016040528060008152602001600073ffffffffffffffffffffffffffffffffffffffff168152602001600081525090565b60006124e26124dd84612fb0565b612f8b565b9050828152602081018484840111156124fa57600080fd5b61250584828561319e565b509392505050565b60008135905061251c816138a3565b92915050565b600081359050612531816138ba565b92915050565b600081359050612546816138d1565b92915050565b60008151905061255b816138d1565b92915050565b600082601f83011261257257600080fd5b81356125828482602086016124cf565b91505092915050565b60008135905061259a816138e8565b92915050565b6000602082840312156125b257600080fd5b60006125c08482850161250d565b91505092915050565b600080604083850312156125dc57600080fd5b60006125ea8582860161250d565b92505060206125fb8582860161250d565b9150509250929050565b60008060006060848603121561261a57600080fd5b60006126288682870161250d565b93505060206126398682870161250d565b925050604061264a8682870161258b565b9150509250925092565b6000806000806080858703121561266a57600080fd5b60006126788782880161250d565b94505060206126898782880161250d565b935050604061269a8782880161258b565b925050606085013567ffffffffffffffff8111156126b757600080fd5b6126c387828801612561565b91505092959194509250565b600080604083850312156126e257600080fd5b60006126f08582860161250d565b925050602061270185828601612522565b9150509250929050565b6000806040838503121561271e57600080fd5b600061272c8582860161250d565b925050602061273d8582860161258b565b9150509250929050565b60006020828403121561275957600080fd5b600061276784828501612537565b91505092915050565b60006020828403121561278257600080fd5b60006127908482850161254c565b91505092915050565b6000602082840312156127ab57600080fd5b60006127b98482850161258b565b91505092915050565b600080604083850312156127d557600080fd5b60006127e38582860161258b565b92505060206127f48582860161258b565b9150509250929050565b600061280a8383612ba6565b60608301905092915050565b61281f8161312a565b82525050565b61282e8161312a565b82525050565b61283d81613118565b82525050565b600061284e82612ff1565b612858818561301f565b935061286383612fe1565b8060005b8381101561289457815161287b88826127fe565b975061288683613012565b925050600181019050612867565b5085935050505092915050565b6128aa8161313c565b82525050565b60006128bb82612ffc565b6128c58185613030565b93506128d58185602086016131ad565b6128de81613379565b840191505092915050565b60006128f482613007565b6128fe8185613041565b935061290e8185602086016131ad565b61291781613379565b840191505092915050565b600061292d82613007565b6129378185613052565b93506129478185602086016131ad565b80840191505092915050565b6000612960604f83613041565b915061296b8261338a565b606082019050919050565b6000612983603283613041565b915061298e826133ff565b604082019050919050565b60006129a6602683613041565b91506129b18261344e565b604082019050919050565b60006129c9602583613041565b91506129d48261349d565b604082019050919050565b60006129ec602483613041565b91506129f7826134ec565b604082019050919050565b6000612a0f601983613041565b9150612a1a8261353b565b602082019050919050565b6000612a32602c83613041565b9150612a3d82613564565b604082019050919050565b6000612a55603583613041565b9150612a60826135b3565b604082019050919050565b6000612a78603883613041565b9150612a8382613602565b604082019050919050565b6000612a9b602a83613041565b9150612aa682613651565b604082019050919050565b6000612abe602983613041565b9150612ac9826136a0565b604082019050919050565b6000612ae1603e83613041565b9150612aec826136ef565b604082019050919050565b6000612b04602c83613041565b9150612b0f8261373e565b604082019050919050565b6000612b27602083613041565b9150612b328261378d565b602082019050919050565b6000612b4a602f83613041565b9150612b55826137b6565b604082019050919050565b6000612b6d602183613041565b9150612b7882613805565b604082019050919050565b6000612b90603183613041565b9150612b9b82613854565b604082019050919050565b606082016000820151612bbc6000850182612be8565b506020820151612bcf6020850182612816565b506040820151612be26040850182612be8565b50505050565b612bf181613194565b82525050565b612c0081613194565b82525050565b6000612c128285612922565b9150612c1e8284612922565b91508190509392505050565b6000602082019050612c3f6000830184612834565b92915050565b6000608082019050612c5a6000830187612834565b612c676020830186612834565b612c746040830185612bf7565b8181036060830152612c8681846128b0565b905095945050505050565b6000604082019050612ca66000830185612834565b612cb36020830184612bf7565b9392505050565b60006020820190508181036000830152612cd48184612843565b905092915050565b6000602082019050612cf160008301846128a1565b92915050565b60006020820190508181036000830152612d1181846128e9565b905092915050565b60006020820190508181036000830152612d3281612953565b9050919050565b60006020820190508181036000830152612d5281612976565b9050919050565b60006020820190508181036000830152612d7281612999565b9050919050565b60006020820190508181036000830152612d92816129bc565b9050919050565b60006020820190508181036000830152612db2816129df565b9050919050565b60006020820190508181036000830152612dd281612a02565b9050919050565b60006020820190508181036000830152612df281612a25565b9050919050565b60006020820190508181036000830152612e1281612a48565b9050919050565b60006020820190508181036000830152612e3281612a6b565b9050919050565b60006020820190508181036000830152612e5281612a8e565b9050919050565b60006020820190508181036000830152612e7281612ab1565b9050919050565b60006020820190508181036000830152612e9281612ad4565b9050919050565b60006020820190508181036000830152612eb281612af7565b9050919050565b60006020820190508181036000830152612ed281612b1a565b9050919050565b60006020820190508181036000830152612ef281612b3d565b9050919050565b60006020820190508181036000830152612f1281612b60565b9050919050565b60006020820190508181036000830152612f3281612b83565b9050919050565b6000602082019050612f4e6000830184612bf7565b92915050565b6000606082019050612f696000830186612bf7565b612f766020830185612825565b612f836040830184612bf7565b949350505050565b6000612f95612fa6565b9050612fa18282613212565b919050565b6000604051905090565b600067ffffffffffffffff821115612fcb57612fca61334a565b5b612fd482613379565b9050602081019050919050565b6000819050602082019050919050565b600081519050919050565b600081519050919050565b600081519050919050565b6000602082019050919050565b600082825260208201905092915050565b600082825260208201905092915050565b600082825260208201905092915050565b600081905092915050565b600061306882613194565b915061307383613194565b9250827fffffffffffffffffffffffffffffffffffffffffffffffffffffffffffffffff038211156130a8576130a76132bd565b5b828201905092915050565b60006130be82613194565b91506130c983613194565b9250826130d9576130d86132ec565b5b828204905092915050565b60006130ef82613194565b91506130fa83613194565b92508282101561310d5761310c6132bd565b5b828203905092915050565b600061312382613174565b9050919050565b600061313582613174565b9050919050565b60008115159050919050565b60007fffffffff0000000000000000000000000000000000000000000000000000000082169050919050565b600073ffffffffffffffffffffffffffffffffffffffff82169050919050565b6000819050919050565b82818337600083830152505050565b60005b838110156131cb5780820151818401526020810190506131b0565b838111156131da576000848401525b50505050565b600060028204905060018216806131f857607f821691505b6020821081141561320c5761320b61331b565b5b50919050565b61321b82613379565b810181811067ffffffffffffffff8211171561323a5761323961334a565b5b80604052505050565b600061324e82613194565b91507fffffffffffffffffffffffffffffffffffffffffffffffffffffffffffffffff821415613281576132806132bd565b5b600182019050919050565b600061329782613194565b91506132a283613194565b9250826132b2576132b16132ec565b5b828206905092915050565b7f4e487b7100000000000000000000000000000000000000000000000000000000600052601160045260246000fd5b7f4e487b7100000000000000000000000000000000000000000000000000000000600052601260045260246000fd5b7f4e487b7100000000000000000000000000000000000000000000000000000000600052602260045260246000fd5b7f4e487b7100000000000000000000000000000000000000000000000000000000600052604160045260246000fd5b6000601f19601f8301169050919050565b7f506c656173652073656e642074686520726571756972656420526f79616c747960008201527f2046656520696e206f7264657220746f2072656c69737420746865206974656d60208201527f206f6e204d61726b6574706c6163650000000000000000000000000000000000604082015250565b7f4552433732313a207472616e7366657220746f206e6f6e20455243373231526560008201527f63656976657220696d706c656d656e7465720000000000000000000000000000602082015250565b7f4f776e61626c653a206e6577206f776e657220697320746865207a65726f206160008201527f6464726573730000000000000000000000000000000000000000000000000000602082015250565b7f4552433732313a207472616e736665722066726f6d20696e636f72726563742060008201527f6f776e6572000000000000000000000000000000000000000000000000000000602082015250565b7f4552433732313a207472616e7366657220746f20746865207a65726f2061646460008201527f7265737300000000000000000000000000000000000000000000000000000000602082015250565b7f4552433732313a20617070726f766520746f2063616c6c657200000000000000600082015250565b7f4552433732313a206f70657261746f7220717565727920666f72206e6f6e657860008201527f697374656e7420746f6b656e0000000000000000000000000000000000000000602082015250565b7f506c6561736520736574206120506f736974697665204e756d6265722061732060008201527f746865207072696365206f6620746865206974656d0000000000000000000000602082015250565b7f4552433732313a20617070726f76652063616c6c6572206973206e6f74206f7760008201527f6e6572206e6f7220617070726f76656420666f7220616c6c0000000000000000602082015250565b7f4552433732313a2062616c616e636520717565727920666f7220746865207a6560008201527f726f206164647265737300000000000000000000000000000000000000000000602082015250565b7f4552433732313a206f776e657220717565727920666f72206e6f6e657869737460008201527f656e7420746f6b656e0000000000000000000000000000000000000000000000602082015250565b7f506c656173652073656e64207468652061736b696e6720707269636520696e2060008201527f6f7264657220746f20636f6d706c657465207468652070757263686173650000602082015250565b7f4552433732313a20617070726f76656420717565727920666f72206e6f6e657860008201527f697374656e7420746f6b656e0000000000000000000000000000000000000000602082015250565b7f4f776e61626c653a2063616c6c6572206973206e6f7420746865206f776e6572600082015250565b7f4552433732314d657461646174613a2055524920717565727920666f72206e6f60008201527f6e6578697374656e7420746f6b656e0000000000000000000000000000000000602082015250565b7f4552433732313a20617070726f76616c20746f2063757272656e74206f776e6560008201527f7200000000000000000000000000000000000000000000000000000000000000602082015250565b7f4552433732313a207472616e736665722063616c6c6572206973206e6f74206f60008201527f776e6572206e6f7220617070726f766564000000000000000000000000000000602082015250565b6138ac81613118565b81146138b757600080fd5b50565b6138c38161313c565b81146138ce57600080fd5b50565b6138da81613148565b81146138e557600080fd5b50565b6138f181613194565b81146138fc57600080fd5b5056fea2646970667358221220f0aaaab11b27067e333e2a73e1e4273570ab89ef9878d9efa238a35f4636648264736f6c6343000804003368747470733a2f2f6261667962656964686a6a626a6f6e7971636168757a6c707437737a6e6d683478726c62737061336773746f70356f34376c3667736961666665652e697066732e6e667473746f726167652e6c696e6b2f",
  "linkReferences": {},
  "deployedLinkReferences": {}
}